:020000040000fa
:080000000002040000000000f2
:020000040000fa
:04000800d80200001a
:020000040000fa
:04000c00c802000026
:020000040000fa
:04001000cc0200001e
:020000040000fa
:04001400d002000016
:020000040000fa
:04001800d40200000e
:020000040000fa
:04001c00d802000006
:020000040000fa
:04002000d802000002
:020000040000fa
:04002400d8020000fe
:020000040000fa
:04002800d8020000fa
:020000040000fa
:04002c00d8020000f6
:020000040000fa
:04003000d8020000f2
:020000040000fa
:04003400d8020000ee
:020000040000fa
:04003800d8020000ea
:020000040000fa
:04003c00d8020000e6
:020000040000fa
:04004000d8020000e2
:020000040000fa
:04004400d8020000de
:020000040000fa
:04004800d8020000da
:020000040000fa
:04004c00d8020000d6
:020000040000fa
:04005000d8020000d2
:020000040000fa
:040054000c0b000091
:020000040000fa
:04005800300b000069
:020000040000fa
:04005c00d8020000c6
:020000040000fa
:04006000d8020000c2
:020000040000fa
:04006400d8020000be
:020000040000fa
:04006800d8020000ba
:020000040000fa
:04006c00d8020000b6
:020000040000fa
:04007000d8020000b2
:020000040000fa
:04007400d8020000ae
:020000040000fa
:04007800d8020000aa
:020000040000fa
:04007c00d8020000a6
:020000040000fa
:04008000d8020000a2
:020000040000fa
:04008400d80200009e
:020000040000fa
:04008800d80200009a
:020000040000fa
:04008c00d802000096
:020000040000fa
:04009000d802000092
:020000040000fa
:04009400d80200008e
:020000040000fa
:04009800fe0b00005b
:020000040000fa
:04009c00d802000086
:020000040000fa
:0400a000d802000082
:020000040000fa
:0400a400d80200007e
:020000040000fa
:0400a800d80200007a
:020000040000fa
:0400ac00d802000076
:020000040000fa
:0400b000d802000072
:020000040000fa
:0400b400d80200006e
:020000040000fa
:0400b800d80200006a
:020000040000fa
:0400bc00d802000066
:020000040000fa
:0400c000d802000062
:020000040000fa
:0400c400d80200005e
:020000040000fa
:0400c800d80200005a
:020000040000fa
:0400cc00d802000056
:020000040000fa
:0400d000d802000052
:020000040000fa
:0400d400d80200004e
:020000040000fa
:0400d800d80200004a
:020000040000fa
:0400dc00d802000046
:020000040000fa
:0400e000d802000042
:020000040000fa
:0400e400d80200003e
:020000040000fa
:0400e800d80200003a
:020000040000fa
:0400ec00d802000036
:020000040000fa
:0400f000d802000032
:020000040000fa
:0400f400d80200002e
:020000040000fa
:0400f800d80200002a
:020000040000fa
:0400fc00d802000026
:020000040000fa
:04010000d802000021
:020000040000fa
:04010400d80200001d
:020000040000fa
:04010800d802000019
:020000040000fa
:04010c00d802000015
:020000040000fa
:04011000d802000011
:020000040000fa
:04011400d80200000d
:020000040000fa
:04011800d802000009
:020000040000fa
:04011c00d802000005
:020000040000fa
:04012000d802000001
:020000040000fa
:04012400d8020000fd
:020000040000fa
:04012800d8020000f9
:020000040000fa
:04012c00d8020000f5
:020000040000fa
:04013000d8020000f1
:020000040000fa
:04013400d8020000ed
:020000040000fa
:04020800d802000018
:020000040000fa
:04020c00d802000014
:020000040000fa
:04021000d802000010
:020000040000fa
:04021400d80200000c
:020000040000fa
:04021800d802000008
:020000040000fa
:04021c00d802000004
:020000040000fa
:04022000d802000000
:020000040000fa
:04022400d8020000fc
:020000040000fa
:04022800d8020000f8
:020000040000fa
:04022c00d8020000f4
:020000040000fa
:04023000d8020000f0
:020000040000fa
:04023400d8020000ec
:020000040000fa
:04023800d8020000e8
:020000040000fa
:04023c00d8020000e4
:020000040000fa
:04024000d8020000e0
:020000040000fa
:04024400d8020000dc
:020000040000fa
:04024800d8020000d8
:020000040000fa
:04024c00d8020000d4
:020000040000fa
:04025000d8020000d0
:020000040000fa
:04025400d8020000cc
:020000040000fa
:04025800d8020000c8
:020000040000fa
:04025c00d8020000c4
:020000040000fa
:04026000d8020000c0
:020000040000fa
:04026400d8020000bc
:020000040000fa
:04026800d8020000b8
:020000040000fa
:04026c00d8020000b4
:020000040000fa
:04027000d8020000b0
:020000040000fa
:04027400d8020000ac
:020000040000fa
:04027800d8020000a8
:020000040000fa
:04027c00d8020000a4
:020000040000fa
:04028000d8020000a0
:020000040000fa
:04028400d80200009c
:020000040000fa
:04028800d802000098
:020000040000fa
:04028c00d802000094
:020000040000fa
:04029000d802000090
:020000040000fa
:04029400d80200008c
:020000040000fa
:04029800d802000088
:020000040000fa
:04029c00d802000084
:020000040000fa
:0402a000d802000080
:020000040000fa
:0402a400d80200007c
:020000040000fa
:0402a800d802000078
:020000040000fa
:0402ac00d802000074
:020000040000fa
:0402b000d802000070
:020000040000fa
:0402b400d80200006c
:020000040000fa
:0402b800d802000068
:020000040000fa
:0402bc00d802000064
:020000040000fa
:0402c000d802000060
:020000040000fa
:0402c400d80200005c
:020000040000fa
:0402c800d802000058
:020000040000fa
:0402cc00d802000054
:020000040000fa
:0402d000d802000050
:020000040000fa
:0402d400d80200004c
:020000040000fa
:0402d800d802000048
:020000040000fa
:0402dc00d802000044
:020000040000fa
:0402e000d802000040
:020000040000fa
:0402e400d80200003c
:020000040000fa
:0402e800d802000038
:020000040000fa
:0402ec00d802000034
:020000040000fa
:0402f000d802000030
:020000040000fa
:0402f400d80200002c
:020000040000fa
:0402f800d802000028
:020000040000fa
:0402fc00d802000024
:020000040000fa
:04030000d80200001f
:020000040000fa
:04030400d80200001b
:020000040000fa
:04030800d802000017
:020000040000fa
:04030c00d802000013
:020000040000fa
:04031000d80200000f
:020000040000fa
:04031400d80200000b
:020000040000fa
:04031800d802000007
:020000040000fa
:04031c00d802000003
:020000040000fa
:04032000d8020000ff
:020000040000fa
:04032400d8020000fb
:020000040000fa
:04032800d8020000f7
:020000040000fa
:04032c00d8020000f3
:020000040000fa
:04033000d8020000ef
:020000040000fa
:04033400d8020000eb
:020000040000fa
:100400002f0121000e7f22000e0188000000000055
:10041000000020000000e000020032000001200087
:100420002002880014000700630007000000e000bd
:1004300003003a00e0c8200001002000020037005d
:100440000000200001002000810f70000100320038
:1004500014000700000020000000e000020032004d
:1004600000000200000000002e0c0200000000004e
:100470000040da000000fe004440a90040112000c6
:100480000000e0000300320000002000a00188000e
:100490004440a800000006008a1f78008b1f7800e7
:1004a0000000060091018800800478000000eb0045
:1004b0001a003700e284440032a0b4009905ba0063
:1004c000e284440032a0b4009906ba00e2844400f9
:1004d00032a0b4000006eb00476fde00fd07b2005b
:1004e000636ce10003003a00ebff07000000eb0043
:1004f0000a003700606ce10004003a00005deb0088
:100500008b05e900fdff3e00040037006168e10053
:10051000010032000086eb000b00070019c7ba008b
:100520001905ba000e04e00003003a000a00e000da
:10053000e0ff3a0000000600fe07b2009e018800be
:100540008a047800f5ff3700395dba008b05e900b1
:100550000c003200295dba008b05e900080032006a
:100560000c00e00003003a00e284440032a0b40032
:10057000f5ff370019ddba008b05e900faff3a00f4
:100580008904e800e184440032a0b40000000600c1
:100590000000fa00ffff37000000fa00ffff3700fd
:1005a0000000fa00ffff37000000fa00ffff3700ed
:0c05b0000040da000000fe000000050022
:020000040000fa
:1005bc005468000065200000426100007242000097
:1005cc006f74000020200000202000000043000079
:1005dc006f6e00006e6500006374000065640000bf
:1005ec00202000002020000020200000200000001f
:1005fc0044690000736300006f6e00006e650000bc
:10060c0063740000656400002020000020200000be
:10061c00004900006e69000074690000616c000004
:10062c00697a0000696e0000672e00002e2e000013
:10063c0020000000202000002020000020200000ce
:10064c00202000002020000020200000202000009e
:10065c002020000000460000616900006c6500006d
:10066c0064200000746f000020770000616b0000b4
:10067c00652000002000000045720000726f000031
:10068c0072200000002000006475000072690000f8
:10069c006e670000006900006e690000746900005c
:1006ac00616c0000697a000061740000696f0000e1
:1006bc006e20000020000000507200006f630000ec
:1006cc0065730000736900006e6700002e2e000039
:1006dc002e200000200000000000000000000000a0
:1006ec00000000000000000000000000760d00007b
:1006fc0000670000720d0000003300003230000073
:10070c003030000043300000300d00000a000000c3
:10071c00737200002c3300003230000030300000c7
:10072c0063300000300d0000004100004f4b000012
:10073c000d0a0000006700006e0d00000042000072
:10074c0061720000426f0000740d00000a0000008e
:10075c00736e00002c42000061720000426f0000ba
:10076c00740d000000770000630d000000720000a3
:10077c002c3100000d00000052650000626f00007b
:10078c006f7400000d0a0000004300004d4400008f
:10079c000d0a00000000000064000000740400005a
:1007ac0084080000940c00009a100000aa140000a9
:1007bc00ba180000ca1c0000f00a0000ea0b000086
:1007cc00b80b0000b80b0000540b0000540b0000d9
:0807dc00540b0000540b000057
:020000040000fa
:1007e4000200fa00004f7800d0c3b3007b03070077
:1007f400e0c3b3007903070040c4b30077030700e4
:100804001e40780075030700d0c0b30073030700cf
:10081400a0c0b300710307004a03070010c0b3006f
:100824000080fa00000006000400fa001007980097
:10083400480307000000e0005500320050030700a1
:10084400004f780050408000e30f50002300320036
:10085400e30f500005003e00e10f5000110032008c
:10086400e10f500018003e0007003700e50f50006c
:1008740034003200e50f50001b003900e60f500031
:10088400380032003d003700d0c3b3009e407800ea
:1008940080cf50003b003a001000200050408800f8
:1008a4003b003700e0c3b3009e40780080cf500087
:1008b40003003a0020002000504088003400370034
:1008c4000a28ef00320037001e0090001e4878000e
:1008d40030002000504088002d00370040002000e8
:1008e400504088002a003700d0c5b3009e407800ed
:1008f40080cf50000f003200c0c2b3009e40780089
:1009040080cf500008003200404080009e009000dc
:10091400008040009e4078001140980040408000d4
:100924000000e8004040880040002000504088005b
:10093400170037000828ef005000200050408800be
:10094400130037001e407800ed4f500003003a00ba
:1009540060002000504088000d0037000a28ef0096
:100964000b0037000a28ef001e407800ea4f5000c1
:1009740006003a0010c0b300060037000a28ef0052
:1009840003003700000000000100370000000000f1
:100994000040eb000080fa00000006000400fa00aa
:1009a400100798000000eb00000f78000b003700e0
:1009b4001e009000104078000004e0000b0032009c
:1009c4001e009000104078009e0090008100e80016
:1009d40011079800010307001e0fe8001e007800ad
:1009e400f80f5000f2ff340001003700000000004f
:1009f400d40207000080fa00000006000200fa009a
:100a0400004f78001e407800f4020700cd02070072
:100a14000080fa00000006000600fa002007980093
:100a24000000eb00000f78004106200020c0b30056
:100a34003203070017003700c60207000000e00079
:100a44000e003200ce020700204798002e009000ce
:100a5400ae409000014878002e0090000000e800ad
:100a6400200798001e0fe8002e409000ea4f500027
:100a740002003a00100020000b00370020c0b30031
:100a84002b0307000004e000020032000000eb002a
:100a940005003700100320009e007800808f50006e
:100aa400e5ff36000000eb000080fa0000000600bd
:100ab4000600fa0010079800210798000000eb00d8
:100ac400000f78001a0037001e00900010407800d4
:100ad4000004e00002003a00100020001900370072
:100ae4001e009000904078002e0090001040780086
:100af40000c068000080fb000000ea004f00de0038
:100b0400004078009e0090008100e80011079800e2
:100b1400ae0090008100e800210798000004e00086
:100b2400020032000000eb00060037001e0fe80050
:100b3400100320009e007800808f5000e2ff3600f2
:100b44000000eb000080fa00000006003c00fa0000
:100b5400501f98000000eb0010079800810c200043
:100b640020c0b300e5020700670047002007980093
:100b740017003700770207000000e0000e00320083
:100b84007f020700604798002e009000ee4090001e
:100b9400014878002e0090000000e800200798002b
:100ba4001e0090000000e800100798006e409000be
:100bb400ea4f50000b00320020c0b300dc020700f3
:100bc4000004e000020032000000eb002a003700bd
:100bd4009e00900010032000808f5000e5ff360037
:100be400010037000000000067004700200798005c
:100bf4000000eb00000f78001a0037005e18900028
:100c0400104078000004e00002003a0010002000c8
:100c1400190037005e189000904078002e00900074
:100c24001040780000c068000080fb000000ea006b
:100c34004f00de0000407800de1890008100e800dc
:100c4400511f9800ae0090008100e8002107980031
:100c54000004e000020032000000eb000600370050
:100c64001e0fe8001e0090009e007800808f500048
:100c7400e2ff3900100020000080fa0000000600a6
:100c84003e00fa00501f9800417f98000000eb00de
:100c940010079800810c200020c0b30097020700c1
:100ca4006700470020079800170037002902070053
:100cb4000000e0000e003200310207006047980097
:100cc4002e009000ee409000014878002e00900025
:100cd4000000e800200798001e0090000000e800d3
:100ce400100798006e409000ea4f50000b0032004d
:100cf40020c0b3008e0207000004e00002003200ae
:100d04000000eb00360037009e0090001003200026
:100d1400808f5000e5ff360001003700000000001e
:100d240067004700200798000000eb00000f7800e0
:100d3400260037005e189000104078000004e000a0
:100d440002003a0010002000250037005e189000d1
:100d5400904078004e78900080cf500007003a0011
:100d64005e1890000000e800501f98002e009000cc
:100d74000000e80020079800130037005e18900078
:100d8400904078002e0090001040780000c0680069
:100d94000080fb000000ea004f00de000040780005
:100da400de1890008100e800511f9800ae0090000a
:100db4008100e800210798000004e00002003200ee
:100dc4000000eb00060037001e0fe8001e00900034
:100dd4009e007800808f5000d6ff3900100020005c
:100de4000080fa00000006003800fa00301f980066
:100df4000000eb0010079800c0372800e7fe07004a
:100e04006400470004ff07000000e00002003a000d
:100e1400200020005e0037000000eb00000f780087
:100e2400130037003e1890001e0040001e01780099
:100e3400eb00410081004700c14090000148780068
:100e44003e1890001e0040009040780000c2b3009d
:100e540080cf500005003a003e1890001e0040006c
:100e64008040eb0001487800040037001e0fe800c2
:100e74001e007800e70f5000eaff36003e1890008d
:100e8400680040008040eb0001487800f0372800fb
:100e9400c2fe0700303828002cff07000000e000e5
:100ea4000a003a00e0382800bcfe0700b0392800e8
:100eb40026ff07000000e00002003a003000200096
:100ec400330037001000200010079800103a280063
:100ed400b2fe0700503a28001cff07000000e000a3
:100ee4000a003a00e03a2800acfe0700b0392800b6
:100ef40016ff07000000e00002003a004000200056
:100f04002300370010002000100798001e009000f6
:100f1400e10f50001d003a00903b28009ffe07009f
:100f2400b039280009ff07000000e00002003a0081
:100f34005000200016003700170007000000e000f2
:100f440002003a006000200011003700f03728004a
:100f540092fe070030382800fcfe07000000e00085
:100f640002003a007000200009003700103a2800ff
:100f74008afe0700503a2800f4fe07000000e00053
:100f840002003a0080002000010037001000200019
:100f94000080fa00000006000000fa00d03b2800a0
:100fa4007efe0700203c2800e8fe07000000e00069
:100fb40002003a000000eb0026003700810c2000fc
:100fc40020c0b300cd0107000600370020c0b300e5
:100fd400d70107000004e000020032000000eb002b
:100fe4001c0037005b0107000000e000f7ff32003f
:100ff400630107000000e000020032000000eb0083
:101004001400370081bb200020c0b300bb010700df
:101014000600370020c0b300c50107000004e0004b
:10102400020032000000eb000a003700490107000b
:101034000000e000f7ff3200b03c2800c3fe0700c8
:101044000000e00002003a000000eb00010037005d
:10105400100020000080fa00000006000000fa00e2
:10106400f0002000c0010700ca82a800caa2a9009b
:10107400cb42a800cb62a900ca42a900ca62a90057
:1010840011e1a9001021a90010c1a9008108800064
:10109400f0fc2f0000806000800888000621ef002b
:1010a400e0ff27006008880011e1a800210c8000ff
:1010b40080ff2f0000806000200c8800f0002000da
:1010c400100c8800f0002000000c88008461a90046
:1010d400f0002000100c8800210c800080ff2f00fd
:1010e400008060006000b300200c880050002000e5
:1010f4009d010700ca82a900500020009a01070040
:10110400ca82a80050002000970107000080fa005e
:10111400000006000a00fa00400798000000eb00f7
:10112400100798000000eb00200798000000eb0077
:10113400000f7800360037001e007800ce009000c3
:10114400008040009040780000c3b30080cf50007e
:10115400330032001e007800ce0090000080400072
:10116400104078000000fb000003b1003007980035
:101174003e0090000000e90080004000203d28006f
:10118400008040009000780021079800ae00900095
:101194001e009000808f50000a003400cb42a8004b
:1011a400cb62a800ae0090001e00900000805000aa
:1011b4006d010700cb62a9003e00900024000700e7
:1011c40010003700ae0090001e009000808f500089
:1011d4000a003d00cb42a900cb62a8009e0090000b
:1011e4002e009000008050005f010700cb62a90030
:1011f4003e00900016000700020037003e009000f9
:1012040013000700ae009000110798001e0fe800bd
:101214001e007800ff0f5000c7ff340001003700a4
:1012240000000000cb62a800cb42a900000000002f
:101234004116800000102000008060000000e000e3
:10124400fbff3a00cb62a9000080fa000000060010
:101254000200fa00000f7800ca42a800ca62a9007e
:101264001e00e90080004000203e2800008040006d
:10127400100078003c010700ca42a900ca62a90014
:10128400409c200038010700ca42a900ca62a80095
:101294001e00e90080004000203e2800008040003d
:1012a4001000780030010700ca42a900ca62a900f0
:1012b4000080fa00000006000000fa00f0002000a0
:1012c40029010700e116800000f02f000080600073
:1012d400e0168800d6a2a900cbe2a900d682a90014
:1012e400c116800000f02f0000806000c016880046
:1012f400d2a2a900c7e2a900d282a900e116800007
:1013040000f02f0000806000e0168800e1168000e5
:101314008003200001007000e0168800d682a80037
:10132400000000000000000000000000d682a900b8
:10133400500020000c010700e116800000f02f008f
:1013440000806000e0168800e11680008003200021
:1013540001007000e0168800d682a800000000009a
:101364000000000000000000d682a900800c2000cc
:1013740009010700e116800000f02f0000806000e2
:10138400e0168800e1168000800320000100700050
:10139400e0168800d682a8000000000000000000cb
:1013a40000000000d682a900800c2000fa0007008b
:1013b40080c3b30006000700c0c0b30004000700e8
:1013c40060c0b300020007000080fa0000000600bd
:1013d4000200fa00004f7800e116800000f02f00b0
:1013e40000806000e01688009e00fb00e01680008c
:1013f40001007000e0168800d6a2a900cbe2a90083
:10140400d682a800000000000000000000000000d8
:10141400d682a90050002000d30007000080fa0003
:10142400000006000200fa00004f7800d6a2a900ce
:10143400cbe2a800e116800000f02f0000806000dd
:10144400e01688009e00fb00e0168000010070009a
:10145400e0168800d682a80000000000000000000a
:1014640000000000d682a900cbe2a90000192000e8
:10147400c90007000080fa00000006000400fa001a
:10148400100798000000eb00000f78000b003700f5
:101494001e009000104078000004e0000b003200b1
:1014a4001e009000104078009e0090008100e8002b
:1014b40011079800dbff07001e0fe8001e007800ec
:1014c400ef0f5000f2ff340001003700000000006d
:1014d4000080fa00000006000000fa00c08020002e
:1014e400104088001040800000408800c0c02000e8
:1014f40030408800304080002040880020022000d6
:10150400401188008000280000118800004020005d
:10151400101188008560a9009560a8000080fa0079
:10152400000006000000fa0001118000f05f2f00a7
:10153400008060000090a000001188000080fa0084
:10154400000006000000fa009580a8000080fa0060
:10155400000006000000fa000200fc0001408000c8
:1015640010408000808f500002003a000000eb0021
:1015740001003700100020000080fa00000006007f
:101584000200fa000200fc000140800010408000cc
:10159400808f500002003a000000eb000d0037007d
:1015a40000408000904078008180fb00010f7800ab
:1015b4000000e8000040880001408000b0c0200026
:1015c400808f500002003600c08020000040880058
:1015d4001e0078000080fa00000006000200fa00f5
:1015e400004f7800304080001e4878000000e8007a
:1015f4003040880031408000b0002100808f5000ce
:1016040002003600c0c02000304088000080fa008c
:1016140000000600809fbe000000fa008560a9005b
:10162400104080003111800081407800014878002a
:101634000000e8001040880011408000b0c0200085
:10164400808f500002003600c080200010408800c7
:101654000080fa004f00be0000400600809fbe00dc
:101664000000fa002140800030408000808f50004c
:101674000e0032008580a900204080009040780050
:101684008180fb00211188000000e80020408800d0
:1016940021408000b0002100808f500004003600fb
:1016a400c0c0200020408800010037009580a900b8
:1016b4000080fa004f00be00004006000000fa005f
:1016c4002021ef001821ef00f0632000e0088800db
:1016d40000002800000988008780a9009105800087
:1016e40080ff2f00008060000020a000900588008b
:1016f4009780a8000080fa00000006000400fa00a9
:10170400004f7800110798001e81fb001e00900016
:101714006a00b9008000780002014100c000210085
:1017240000004100010878000080fa000000060073
:101734000200fa00004f78001e80fb008000400089
:10174400c000210000804000100078000000e0008c
:1017540002003a0010c0b300010037000040eb0063
:101764000080fa00000006000200fa00000f780072
:101774009e00780020c0b300e0ff070000000000d6
:1017840020c0b300eaff07000004e000fcff3200c1
:101794000080fa00000006000200fa00000f780042
:1017a4001e0078000000e000100032000421ef0069
:1017b4000021ef001e00780000004000100888009f
:1017c4008460a900000128002008880000000000af
:1017d40020048000680060000000e000fcff32008c
:1017e4000421ef008460a90001003700000000001c
:1017f4000080fa0000000600801f78000000fa0054
:101804008780a900608080000000e00003003200af
:10181400608080000000e9006080880070808000a3
:101824000000e00003003200708080000000e90046
:1018340070808800808080000000e0000300320097
:10184400808080000000e900808088000080fa0029
:101854004f007800004006005000fa00213a800052
:10186400f08f2f0000806000203a88000000eb0019
:10187400000f7800203728009040780061c7980056
:101884009040900071c798008e0078008104b000e9
:10189400020009008018eb008058eb000040eb00c8
:1018a400204798000040eb003047980003000700f1
:1018b400ca42a900ca62a800ffff37000000fa006c
:1018c400f0fc2f0060198800c422ef0000f02f0004
:1018d400001688002000200050168800003c2f00cd
:1018e40030168800d622ef00f0ff270090168800fb
:1018f400b00020001017880040ff2f00f016880069
:10190400f5fe07006dff07008020ef008220ef0046
:081914000080fa00000006004b
:020000040000fa
:10191c000c10000006000000000000000808000089
:10192c0004000000000000000c080000000800008b
:10193c00000000000008000008000000000000008b
:04194c000000000097
:020000040000fa
:020000040002f8
:04aff8003f7900009d
:020000040000fa
:020000040002f8
:04affc007f3f000093
:00000001FF
